:060000000A128A110E280D
:10000800FE00030E83120313B5000A08B6000A1295
:100018008A11302B0A128A11112883134030840068
:1000280059300A128A15A3250A128A118316031356
:10003800C101C201C301C401C501C60183010A127D
:100048008A11CA2983160313B000A630AB00B5295C
:10005800253033060319312832283C28300884001B
:100068003308831380000130A8002808B007B52999
:10007800B101B201AC0145282C150130A8002808AF
:10008800A507250884000A128A150A200A128A116F
:10009800A800A9012908003A031953285828280854
:1000A800303A031940285828250884000A128A156E
:1000B8000A200A128A110A128A15ED250A128A11D3
:1000C800031C67286828BC2883160313B101B201F2
:1000D8000A3083120313B7000030B80083160313E5
:1000E800320883120313BA008316031331088312EC
:1000F8000313B9000A128A154E260A128A118312AE
:100108000313380883160313B20083120313370846
:1001180083160313B100250884000A128A150A20E1
:100128000A128A11D03EA800FF3003180030A90037
:100138002808B1070318B20A2908B2070130A80035
:100148002808A507250884000A128A150A200A1219
:100158008A110A128A15ED250A128A110318B52880
:10016800B6286C28BC28C030A8002808AC04D828B9
:10017800013083160313A507FF30250784000A12F0
:100188008A150A200A128A11B300A800A9012908B1
:10019800003A0319D028B5292808003A0319C529B7
:1001A800753A0319B728B5292B088400831300086A
:1001B800AD00840A0008AE000230A8002808AB078A
:1001C800B301B30A3308A8002807013E84000A12C5
:1001D8008A150A200A128A11A9000A128A150A2009
:1001E8000A128A11AA002A082E02031DFD282908CE
:1001F8002D0203180029012902290C290130A80021
:100208002808B30705303306031D0B290C29E628F7
:100218003208803A803C031D132931083302031841
:10022800162917292329831603133308A800A901BF
:100238002808B1022908031CB203B2022729831631
:100248000313B101B2012C1D2A292B294729310892
:1002580032040319302931296229300884003030EA
:10026800831380000130A8002808B007FF30B107C9
:100278000318B20AFF30B20731083204031D4529BA
:100288004629312962293108320403194C294D299C
:100298006229300884002030831380000130A800D0
:1002A8002808B007FF30B1070318B20AFF30B207B9
:1002B80031083204031D612962294D293308AF0032
:1002C800AC290A30A0000030A1002F08A800280798
:1002D800013E84000A128A150A200A128A11831222
:1002E8000313B7000A128A150A200A128A11B800E5
:1002F800831603132E0883120313BA0083160313FD
:100308002D0883120313B9000A128A151F270A122F
:100318008A1183120313380883160313A300831268
:100328000313370883160313A2000A128A15DF265F
:100338000A128A11831603132008303EB3003008CE
:1003480084003308831380000130A8002808B00710
:10035800FF30A8002808AF072F0A031DB429B529C4
:1003680065290130A507FF30250784000A128A1580
:100378000A200A128A11B3003308031DC429C529AB
:100388002C28300884008313800108000A128A157B
:10039800AA260A128A117030831603138F000030C0
:1003A800A200A3000030A400A5004330A9007F30BC
:1003B800A8000030A7000030A6000A128A15652799
:1003C8000A128A11831203139F1400308316031331
:1003D800A8000030A7002530A6008030A5000A122A
:1003E8008A112F240A128A11003083120313B700CE
:1003F800B80083160313070E01390A128A15AB25B4
:100408000A128A110B3083160313B6002630B50082
:100418005D30B400B40B0E2AB50B0E2AB60B0E2AAB
:100428001A3083120313B8008030B9000A128A15F3
:1004380075260A128A11063083160313B600133084
:10044800B500AD30B400B40B272AB50B272AB60B7C
:10045800272A0B3083120313B8008030B9000A1220
:100468008A1575260A128A11063083160313B600F8
:100478001330B500AD30B400B40B402AB50B402A98
:10048800B60B402A2E3083120313B8008030B9000F
:100498000A128A1575260A128A11831203139F14E9
:1004A80083160313C501C601831203139F185D2A1F
:1004B8005E2AFF2A83160313C501C6014608803A3F
:1004C800FF0080307F02031D6B2A03304502031CA6
:1004D8006E2A6F2A702AFF2A831603134508B40070
:1004E800B40DB40D831203131F08831603133406C7
:1004F800C3393406831203139F009F1401308316F7
:100508000313C5070318C60A0030C607622A2E302F
:1005180083120313B8008030B9000A128A157526B1
:100528000A128A11313083160313A50083120313AC
:10053800490883160313A700831203134808831678
:100548000313A600B7300A128A1126200A128A114C
:10055800B73083120313B8000030B9000A128A15A5
:1005680075260A128A110A128A1517260A128A1182
:100578003030831203139A00152B2F308316031380
:10058800B600AC30B500EB30B400B40BC92AB50BDB
:10059800C92AB60BC92AD02A2E3083120313B800F1
:1005A8008030B9000A128A1575260A128A110A12B1
:1005B8008A15DA250A128A1183120313B8008030CB
:1005C800B9000A128A1575260A128A112E3083126A
:1005D8000313B8008030B9000A128A1575260A126A
:1005E8008A110A128A1517260A128A1130308312C4
:1005F80003139A00152B0A128A15DA250A128A1192
:1006080083160313B400B5013508003A03190D2BFE
:10061800152B3408313A03198B2A033A0319C12AD6
:10062800152B0A128A15B5250A128A11031C1D2BCF
:100638001E2B582A0A128A15CC250A128A118316EB
:100648000313C00040080A128A11F2270A128A11FD
:10065800582A0A128A110E280C1F332B342BCC2B44
:100668001F0CB100310C0F39013A031D3C2B3D2BF7
:100678006C2B0030A000A1001E08B100B201B3012C
:10068800B4013408F3003308F2003208F1003108ED
:10069800F00000300A128A11F3240A128A11730832
:1006A80083120313A5007208A4007108A300700840
:1006B800A2000A128A1501260A128A11831203134C
:1006C8001E08B100B2013108CC003208CD00CB2B96
:1006D8001F0CB100310C0F39003A031D742B752B18
:1006E800A52B0130A0000030A1001E08B100B20106
:1006F800B301B4013408F3003308F2003208F10002
:100708003108F00000300A128A11F3240A128A1103
:10071800730883120313A5007208A4007108A300CC
:100728007008A2000A128A1501260A128A11831279
:1007380003131E08B100B2013108CA003208CB0009
:10074800CB2B1F0CB100310C0F39023A031DAD2B16
:10075800AE2BCB2B1E08B100B201B301B401340893
:10076800F3003308F2003208F1003108F0000030DD
:100778000A128A11F3240A128A11730883120313C6
:10078800C3007208C2007108C1007008C0000C13D1
:100798000B1CCF2BD02B192C0618D32BD42BE02BCA
:1007A800061CD72BD82BD42B4A08F00032300A125B
:1007B8008A152E260A128A11831203138618E52B2E
:1007C800E62B192C132C32300A128A15BF250A126F
:1007D8008A1183120313B100B2013108C80032082C
:1007E800C9000030A000A1004808F0004908F10045
:1007F800F201F30100300A128A11F3240A128A1155
:10080800730883120313A5007208A4007108A300DB
:100818007008A2000A128A1501260A128A11831288
:100828000313861C182C192CE72B4308AF00420829
:10083800AE004108AD004008AC000A128A11DD265E
:100848000A128A118312031336088A00350E8300B0
:10085800FE0E7E0E0900831603132508A90026083C
:10086800AA002708AB002808AC0004300310A90D23
:10087800AA0DAB0DAC0DFF3E031D3A2C2C088312BC
:100888000313BA00831603132B0883120313B9004A
:10089800831603132A0883120313B800831603135D
:1008A800290883120313B7000030BE007A30BD0058
:1008B8001230BC000030BB000A128A1168270A12E5
:1008C8008A11831203133708FF3E83160313AD0002
:1008D8008312031338080318013EFF3E83160313DF
:1008E800AE00AE1F782C792C7B2CAD01AE012E0802
:1008F800803AFF0081307F02031D842C00302D02D6
:10090800031C872C882CE82C831603132508A900C0
:100918002608AA002708AB002808AC0006300310F8
:10092800A90DAA0DAB0DAC0DFF3E031D932C2C0891
:1009380083120313BA00831603132B0883120313BD
:10094800B900831603132A0883120313B800831609
:100958000313290883120313B7000030BE007A304E
:10096800BD001230BC000030BB000A128A11682793
:100978000A128A11831203133708FF3E83160313E2
:10098800AD008312031338080318013EFF3E831697
:100998000313AE002E08803AFF0081307F02031D4A
:1009A800D72C00302D02031CDA2CDB2CE12CFF3075
:1009B80083160313AD000030AE00831603132D0811
:1009C800990020309800EE2C831603132D08990007
:1009D8002430980090308312031398000800F80020
:1009E80078080319F82CF92C0D2DF31FFC2CFD2C7D
:1009F8000D2D7009FA007109FB007209FC007309DA
:100A0800FD00FA0A0319FB0A0319FC0A0319FD0A77
:100A1800152D7308FD007208FC007108FB007008B2
:100A2800FA007308720471047004031D1C2D1D2D37
:100A3800262D0030F3000030F2000030F1000030C5
:100A4800F000AA2D9630F900362D0130F400740814
:100A5800F90701300310FD0CFC0CFB0CFA0CFF3EEF
:100A6800031D2E2DFE307D05031D3B2D3C2D292D0C
:100A7800582D0130F4007408F9070130FA070030E6
:100A880003180130FB07003003180130FC07003061
:100A980003180130FD0701300310FD0CFC0CFB0CA2
:100AA800FA0CFF3E031D502DFF307D05031D5D2D03
:100AB8005E2D3D2D6A2D0130F9020130F40003103E
:100AC800FA0DFB0DFC0DFD0DF40B632DFC1B6D2DBC
:100AD8006E2D742D023079020318732D742D5F2D3D
:100AE8007918772D782D802DFF30FA05FF30FB051A
:100AF8007F30FC05FF30FD050310F90C7908F40080
:100B0800F501F601F70118300310F40DF50DF60D97
:100B1800F70DFF3E031D882D7408FA047508FB04C1
:100B28007608FC047708FD04780803199C2D9D2D90
:100B3800A22DF31FA02DA12DA22DFD177D08F300D6
:100B48007C08F2007B08F1007A08F0000800003009
:100B5800831203132005A80000302105A900803066
:100B68002205AA007F302305AB002B082A0429049C
:100B78002804031DC02DC12DC92D0030A30000304D
:100B8800A2000030A1000030A00000302405A80019
:100B980000302505A90080302605AA007F302705EA
:100BA800AB002B082A0429042804031DDC2DDD2DA5
:100BB800E52D0030A7000030A6000030A500003069
:100BC800A400A31FE82DE92D0D2E0030A800003049
:100BD800A9000030AA008030AB002008A802210834
:100BE800031C210FF82DF92DA9022208031C220F3E
:100BF800FE2DFF2DAA022308031C230F042E052E09
:100C0800AB022B08A3002A08A2002908A100280883
:100C1800A000A71F102E112E352E0030A80000307E
:100C2800A9000030AA008030AB002408A8022508DB
:100C3800031C250F202E212EA9022608031C260F8F
:100C4800262E272EAA022708031C270F2C2E2D2E0E
:100C5800AB022B08A7002A08A6002908A500280827
:100C6800A4008030A3068030A70627082302031DAE
:100C7800472E26082202031D472E25082102031DA0
:100C8800472E2408200203184A2E4B2E4D2E0310FF
:100C98004E2E03140800031083120313390D3A0D66
:100CA80083160313A1002108031D5B2E5C2E672EFB
:100CB800003083120313BA000030B9000030B800C6
:100CC8000030B700DC2E831203133708BB00380846
:100CD800BC003908BD003A08BE001F300310BE0C26
:100CE800BD0CBC0CBB0CFF3E031D722E3B088316CB
:100CF8000313A00083120313B917FF30B705FF30A1
:100D0800B805FF30B9050030BA05963083160313CD
:100D1800A102A11F902E912EAF2E2108803A973E56
:100D28000318972E982E992E5C2E013003108312EB
:100D38000313BA0CB90CB80CB70CFF3E031D9A2E5E
:100D48000130BB003B0883160313A107031DAD2E1A
:100D5800AE2E992ECA2E20302102031CB42EB52E99
:100D6800C52E5C2E013083120313BB000310B70D90
:100D7800B80DB90DBA0DBB0BBA2E0130831603138B
:100D8800A1022108031DC92ECA2EB62E2008031958
:100D9800CE2ECF2EDC2E83120313B709B809B9095A
:100DA800BA09B70A0319B80A0319B90A0319BA0A1A
:100DB8000800831203138C1CE22EE32E672F831680
:100DC8000313C501C601362F831603134508F00027
:100DD8004608F1000030F11BFF30F200F30001304B
:100DE8000A128A11F3240A128A1173088312031350
:100DF800A3007208A2007108A1007008A0002F08C3
:100E0800A7002E08A6002D08A5002C08A4000A1289
:100E18008A15B0270A128A11031C132F142F2E2F9C
:100E280083160313070C83120313B000B00C300CA5
:100E38000139B0000130B006B00DB00DB00D831609
:100E480003130708831203133006F7393006831695
:100E580003138700013083160313C5070318C60A56
:100E68000030C607831203132F08A3002E08A20020
:100E78002D08A1002C08A000831603134508F000D4
:100E88004608F1000030F11BFF30F200F30001309A
:100E98000A128A11F3240A128A117308831203139F
:100EA800A7007208A6007108A5007008A4000A121D
:100EB8008A11AB250A128A110318632F642FE82EB2
:100EC800831203138C100800003083160313A30049
:100ED8000030A2000030A1000030A00083120313EC
:100EE8003A0839043804370403197B2F7C2FD92F8B
:100EF80083160313A401A40A902F0130BF00031026
:100F0800B70DB80DB90DBA0DBF0B832F0130BF0057
:100F18003F0883160313A40783120313BA1F952FE0
:100F2800962F812F01308312BF00031083160313FD
:100F3800A00DA10DA20DA30D83120313BF0B992FB2
:100F48003A083E02031DB22F39083D02031DB22F95
:100F580038083C02031DB22F37083B02031CB52F8B
:100F6800B62FC72F3708BB023808031C380FBC023E
:100F78003908031C390FBD023A08031C3A0FBE0298
:100F8800831603132014013003108312BA0CB90C12
:100F9800B80CB70CFF3E031DC82F0130831603138E
:100FA800A402031DD82FD92F962F831603132308C5
:100FB80083120313BA008316031322088312031340
:100FC800B90083160313210883120313B80083168C
:100FD8000313200883120313B700080083120313B6
:100FE800B70083160313981CFA2FFB2FF52F8312D3
:100FF8000313370899000800FF1B0A2883137F187A
:1010080083170008840A0319FF0A080008308A00B9
:101018000408840A82070034013400340A34003496
:1010280064340034E83403341034273432342E3432
:1010380045346E3476346934613472342034413442
:101048007334633469346934003431342E344C34A5
:10105800653465347234203470346F3474346534D4
:101068006E34633469346F346D3465347434723477
:101078006F340D340A340034253430343334753445
:061088000D340A340034AF
:101B460064008001840A0406031900340406A42DE7
:101B560083120313370C83160313031C8711031810
:101B660087150800831203138C1ABA2DBB2DBD2DC1
:101B76000310BE2D03140800F0007008831203172B
:101B86008D00831603178C130C14831203170C088D
:101B96000800831203138C1ED12DD22DCC2D981C38
:101BA600D52DD62DD82D181218161A08080083120E
:101BB60003138C1ADF2DE02DEB2D981CE32DE42D5D
:101BC600E92D181200008312031318161A08EC2DBB
:101BD6000030080083120313B800B7013A30380208
:101BE6000318F62DF72DFF2D30303802031CFC2D7F
:101BF600FD2DFF2DB701B70A370C0800831203131A
:101C060020082104031D082E092E102E1E08A600EA
:101C16000310260C803E9500162E1E08A600031003
:101C2600260C803E9B0008001A3083120313B8006E
:101C36008030B9000A128A1575260A128A150B30E9
:101C460083120313B8008030B9000A128A1575266C
:101C56000A128A150800F1007108831203178D0015
:101C660070088C00831603178C130C150B08F200F2
:101C76008B0155308D00AA308D008C1472088B00B4
:101C86000C11462E0000831203130D1E4B2E4C2EF4
:101C9600452E0D12080083120313BB01BC01371C2D
:101CA600552E562E5C2E3908BB070318BC0A3A0877
:101CB600BC0701300310B90DBA0DFF3E031D5D2EA2
:101CC60001300310B80CB70CFF3E031D642E370815
:101CD6003804031D6F2E702E522E3C08B8003B08A8
:101CE600B700080083120313BC01942E3C08BA0007
:101CF600BB013A08380784003B0803183B0A39073A
:101D0600FF000A128A1500200A128A150A128A1181
:101D1600F2270A128A15013083120313BA003A0811
:101D2600BC073C08BA00BB013A08380784003B08E8
:101D360003183B0A3907FF000A128A1500200A1207
:101D46008A15003A031DA82EA92E792E0800033005
:101D56008316031788008901FF3083160313850055
:101D6600FF30860081130F3095008312031388011C
:101D760089017030831603138F040F149F131F12EB
:101D86009F12831203131F083F3940389F00C33048
:101D96009F051F140F3083120313B700B70BD12E04
:101DA600D42E831203130C13831603130C178B11F3
:101DB6000B140B178B170800831603132008210436
:101DC6000319E62EE72E1A2FA401A40AF92E0130D4
:101DD6000310A00DA10DFF3E031DEB2E0130831253
:101DE6000313BF003F0883160313A407A11FFC2E8D
:101DF600FD2EEA2E21082302031D032F20082202AE
:101E0600031C062F072F0D2F2008A2022108031CF2
:101E1600A303A30201300310A10CA00CFF3E031D77
:101E26000E2F0130A402031D192F1A2FFD2E230891
:101E3600A1002208A000080083120313BD01BE0101
:101E4600370838040319282F292F602FBC01BC0A34
:101E5600372F01300310B70DB80DFF3E031D2D2F90
:101E66000130BB003B08BC07B81F3A2F3B2F2C2F75
:101E760001300310BD0DBE0DFF3E031D3C2F38087B
:101E86003A02031D482F37083902031C4B2F4C2FEB
:101E9600532F3708B9023808031CBA03BA023D1497
:101EA60001300310B80CB70CFF3E031D542F013050
:101EB600BC02031D5F2F602F3B2F3E08B8003D0874
:101EC600B700080083160313240C031C871003189D
:101ED6008714220C031C07110318071529088312FF
:101EE6000313BA0083160313280883120313B900D9
:101EF60083160313270883120313B80083160313EC
:101F0600260883120313B7000A128A114F260A12F3
:101F16008A158312031337088316031392003F3082
:101F26008312031397051708F0390C3897000F3002
:101F36009500CF3097058C100330920412151D08BA
:101F4600F0390C389D000F309B001D129D128C1C21
:101F5600AD2FAE2FAA2F8C1008000030831203136A
:101F66002005A80000302105A90080302205AA001E
:101F76007F302305AB002B082A0429042804031DFF
:101F8600C52FC62FCE2F0030A3000030A200003090
:101F9600A1000030A00000302405A800003025056F
:101FA600A90080302605AA007F302705AB002B0844
:101FB6002A0429042804031DE12FE22FEA2F00300A
:101FC600A7000030A6000030A5000030A4002708B6
:101FD6002306031DF82F26082206031DF82F2508C1
:101FE6002106031DF82F240820060319FB2FFC2FBA
:0A1FF600FE2F0310FF2F0314080054
:08400000FF3FFF3FFF3FFF3FC0
:04400E00D520FF3F7B
:00000001FF
