:060000000A128A110E280D
:10000800FE00030E83120313B5000A08B6000A1295
:100018008A11242B0A128A11112883134030840074
:1000280059300A128A15D2250A128A118316031327
:10003800C101C20183010A128A11C629831603135A
:10004800B000A630AB00B1292530330603192D289E
:100058002E283828300884003308831380000130A4
:10006800A8002808B007B129B101B201AC014128A4
:100078002C150130A8002808A507250884000A12B5
:100088008A150A200A128A11A800A9012908003A2B
:1000980003194F2854282808303A03193C285428B3
:1000A800250884000A128A150A200A128A110A12DF
:1000B8008A152A260A128A11031C63286428B8287C
:1000C80083160313B101B2010A3083120313B70078
:1000D8000030B80083160313320883120313BA00E2
:1000E80083160313310883120313B9000A128A1501
:1000F8008B260A128A1183120313380883160313F6
:10010800B20083120313370883160313B1002508BE
:1001180084000A128A150A200A128A11D03EA80001
:10012800FF3003180030A9002808B1070318B20AE5
:100138002908B2070130A8002808A5072508840067
:100148000A128A150A200A128A110A128A152A2600
:100158000A128A110318B128B2286828B828C030B2
:10016800A8002808AC04D428013083160313A50777
:10017800FF30250784000A128A150A200A128A11FC
:10018800B300A800A9012908003A0319CC28B1290D
:100198002808003A0319C129753A0319B328B12967
:1001A8002B08840083130008AD00840A0008AE0001
:1001B8000230A8002808AB07B301B30A3308A80027
:1001C8002807013E84000A128A150A200A128A1199
:1001D800A9000A128A150A200A128A11AA002A08F6
:1001E8002E02031DF92829082D020318FC28FD28D2
:1001F800FE2808290130A8002808B307053033066F
:10020800031D07290829E2283208803A803C031D8B
:100218000F29310833020318122913291F298316BD
:1002280003133308A800A9012808B1022908031CF0
:10023800B203B202232983160313B101B2012C1DA4
:100248002629272943293108320403192C292D2965
:100258005E29300884003030831380000130A80004
:100268002808B007FF30B1070318B20AFF30B207F9
:1002780031083204031D412942292D295E293108FC
:1002880032040319482949295E293008840020309E
:10029800831380000130A8002808B007FF30B10799
:1002A8000318B20AFF30B20731083204031D5D2972
:1002B8005E2949293308AF00A8290A30A000003078
:1002C800A1002F08A8002807013E84000A128A15F9
:1002D8000A200A128A1183120313B7000A128A1518
:1002E8000A200A128A11B800831603132E088312F3
:1002F8000313BA00831603132D0883120313B900DE
:100308000A128A151F270A128A1183120313380842
:1003180083160313A30083120313370883160313EA
:10032800A2000A128A11BE270A128A118316031321
:100338002008303EB300300884003308831380005F
:100348000130A8002808B007FF30A8002808AF0728
:100358002F0A031DB029B12961290130A507FF30F3
:10036800250784000A128A150A200A128A11B30086
:100378003308031DC029C1292828300884008313A5
:10038800800108000A128A15E7260A128A117030BD
:10039800831603138F000030A200A3000030A400CE
:1003A800A5004330A9007F30A8000030A700003026
:1003B800A6000A128A1565270A128A1183120313E6
:1003C8009F14003083160313A8000030A7002530BF
:1003D800A6008030A5000A128A11FB230A128A118E
:1003E800003083120313B700B80083160313070EF7
:1003F80001390A128A15DA250A128A110B30831676
:100408000313B6002630B5005D30B400B40B0A2AD9
:10041800B50B0A2AB60B0A2A1A3083120313B8003E
:100428008030B9000A128A15B2260A128A110630DB
:1004380083160313B6001330B500AD30B400B40B07
:10044800232AB50B232AB60B232A0B308312031356
:10045800B8008030B9000A128A15B2260A128A1129
:10046800063083160313B6001330B500AD30B40060
:10047800B40B3C2AB50B3C2AB60B3C2A2E3083120F
:100488000313B8008030B9000A128A15B2260A127E
:100498008A11831203139F1483160313C101C20127
:1004A800831203139F18592A5A2AF32A831603130F
:1004B800C101C2014208803AFF0080307F02031D5B
:1004C800672A03304102031C6A2A6B2A6C2AF32A22
:1004D800831603134108B400B40DB40D831203133B
:1004E8001F08831603133406C33934068312031313
:1004F8009F009F14013083160313C1070318C20A13
:100508000030C2075E2A2E3083120313B8008030F1
:10051800B9000A128A15B2260A128A1131308316D6
:100528000313A5000A30A6000030A700B7300A124E
:100538008A1122200A128A11B73083120313B800D5
:100548000030B9000A128A15B2260A128A110A1254
:100558008A1554260A128A113030831203139A001E
:10056800092B2F3083160313B600AC30B500EB30DF
:10057800B400B40BBD2AB50BBD2AB60BBD2AC42ADC
:100588002E3083120313B8008030B9000A128A157E
:10059800B2260A128A110A128A1517260A128A1115
:1005A80083120313B8008030B9000A128A15B226E4
:1005B8000A128A112E3083120313B8008030B90052
:1005C8000A128A15B2260A128A110A128A155426A4
:1005D8000A128A113030831203139A00092B0A1267
:1005E8008A1517260A128A1183160313B400B50157
:1005F8003508003A0319012B092B3408313A03193D
:10060800872A033A0319B52A092B0A128A15E42501
:100618000A128A11031C112B122B542A0A128A154A
:10062800FB250A128A1183160313C00040080A1218
:100638008A1509260A128A11542A0A128A110E28C2
:100648000C1F272B282BB92B1F0CB100310C0F398D
:10065800013A031D302B312B572B0030A000A1008D
:100668001E08B100B201B301B4013408F300330825
:10067800F2003208F1003108F00000300A128A1145
:10068800BF240A128A11730883120313A500720883
:10069800A4007108A3007008A2000A128A153E2659
:1006A8000A128A11B62B1F0CB100310C0F39003A0F
:1006B800031D5F2B602B902B0130A0000030A100A0
:1006C8001E08B100B201B301B4013408F3003308C5
:1006D800F2003208F1003108F00000300A128A11E5
:1006E800BF240A128A11730883120313A500720823
:1006F800A4007108A3007008A2000A128A153E26F9
:100708000A128A11831203131E08B100B2013108BC
:10071800CC003208CD00B62B1F0CB100310C0F39BC
:10072800023A031D982B992BB62B1E08B100B20173
:10073800B301B4013408F3003308F2003208F100C1
:100748003108F00000300A128A11BF240A128A11F7
:10075800730883120313C3007208C2007108C10032
:100768007008C000831203130C130B1CBC2BBD2B89
:10077800E52B0618C02BC12BC92B061CC42BC52B77
:10078800C12B0130B100310889078618CC2BCD2B3D
:10079800E52BE12B4C08F0004E080A128A156B264F
:1007A8000A128A11831203134E080A128A15EE25BB
:1007B8000A128A11831203138800861CE42BE52B86
:1007C800CE2B4308AF004208AE004108AD004008F8
:1007D800AC000A128A11A9260A128A11831203137D
:1007E80036088A00350E8300FE0E7E0E0900831639
:1007F80003132508A9002608AA002708AB00280823
:10080800AC0004300310A90DAA0DAB0DAC0DFF3ED2
:10081800031D062C2C0883120313BA008316031336
:100828002B0883120313B900831603132A088312B3
:100838000313B80083160313290883120313B700A0
:100848000030BE007A30BD001230BC000030BB0062
:100858000A128A1134270A128A11831203133708DD
:10086800FF3E83160313AD008312031338080318E1
:10087800013EFF3E83160313AE00AE1F442C452CE9
:10088800472CAD01AE012E08803AFF0081307F026F
:10089800031D502C00302D02031C532C542CB42C57
:1008A800831603132508A9002608AA002708AB0009
:1008B8002808AC0006300310A90DAA0DAB0DAC0D2D
:1008C800FF3E031D5F2C2C0883120313BA00831606
:1008D80003132B0883120313B900831603132A0882
:1008E80083120313B8008316031329088312031312
:1008F800B7000030BE007A30BD001230BC000030B6
:10090800BB000A128A1134270A128A1183120313B0
:100918003708FF3E83160313AD008312031338080C
:100928000318013EFF3E83160313AE002E08803ADB
:10093800FF0081307F02031DA32C00302D02031C11
:10094800A62CA72CAD2CFF3083160313AD00003066
:10095800AE00831603132D08990020309800BA2C96
:10096800831603132D0899002430980090308312C1
:10097800031398000800F80078080319C42CC52C44
:10098800D92CF31FC82CC92CD92C7009FA0071096D
:10099800FB007209FC007309FD00FA0A0319FB0A3F
:1009A8000319FC0A0319FD0AE12C7308FD007208FB
:1009B800FC007108FB007008FA00730872047104E7
:1009C8007004031DE82CE92CF22C0030F3000030F1
:1009D800F2000030F1000030F000762D9630F9007A
:1009E800022D0130F4007408F90701300310FD0CE2
:1009F800FC0CFB0CFA0CFF3E031DFA2CFE307D05A7
:100A0800031D072D082DF52C242D0130F400740842
:100A1800F9070130FA07003003180130FB070030EE
:100A280003180130FC07003003180130FD070130BE
:100A38000310FD0CFC0CFB0CFA0CFF3E031D1C2DD7
:100A4800FF307D05031D292D2A2D092D362D013056
:100A5800F9020130F4000310FA0DFB0DFC0DFD0D39
:100A6800F40B2F2DFC1B392D3A2D402D0230790225
:100A780003183F2D402D2B2D7918432D442D4C2D37
:100A8800FF30FA05FF30FB057F30FC05FF30FD0520
:100A98000310F90C7908F400F501F601F701183094
:100AA8000310F40DF50DF60DF70DFF3E031D542D43
:100AB8007408FA047508FB047608FC047708FD043A
:100AC80078080319682D692D6E2DF31F6C2D6D2D77
:100AD8006E2DFD177D08F3007C08F2007B08F100FD
:100AE8007A08F00008000030831203132005A800DC
:100AF80000302105A90080302205AA007F30230597
:100B0800AB002B082A0429042804031D8C2D8D2DE5
:100B1800952D0030A3000030A2000030A100003065
:100B2800A00000302405A80000302505A900803069
:100B38002605AA007F302705AB002B082A042904C4
:100B48002804031DA82DA92DB12D0030A7000030C1
:100B5800A6000030A5000030A400A31FB42DB52DB9
:100B6800D92D0030A8000030A9000030AA0080303C
:100B7800AB002008A8022108031C210FC42DC52D95
:100B8800A9022208031C220FCA2DCB2DAA02230872
:100B9800031C230FD02DD12DAB022B08A3002A084C
:100BA800A2002908A1002808A000A71FDC2DDD2D20
:100BB800012E0030A8000030A9000030AA008030C3
:100BC800AB002408A8022508031C250FEC2DED2DE9
:100BD800A9022608031C260FF22DF32DAA022708C6
:100BE800031C270FF82DF92DAB022B08A7002A08A4
:100BF800A6002908A5002808A4008030A306803094
:100C0800A70627082302031D132E26082202031D08
:100C1800132E25082102031D132E24082002031871
:100C2800162E172E192E03101A2E0314080003105F
:100C380083120313390D3A0D83160313A1002108FB
:100C4800031D272E282E332E003083120313BA00DB
:100C58000030B9000030B8000030B700A82E831269
:100C680003133708BB003808BC003908BD003A0830
:100C7800BE001F300310BE0CBD0CBC0CBB0CFF3EED
:100C8800031D3E2E3B0883160313A0008312031393
:100C9800B917FF30B705FF30B805FF30B905003088
:100CA800BA05963083160313A102A11F5C2E5D2E90
:100CB8007B2E2108803A973E0318632E642E652EFA
:100CC800282E0130031083120313BA0CB90CB80C88
:100CD800B70CFF3E031D662E0130BB003B08831690
:100CE8000313A107031D792E7A2E652E962E203028
:100CF8002102031C802E812E912E282E0130831272
:100D08000313BB000310B70DB80DB90DBA0DBB0B1B
:100D1800862E013083160313A1022108031D952E88
:100D2800962E822E200803199A2E9B2EA82E831207
:100D38000313B709B809B909BA09B70A0319B80AF0
:100D48000319B90A0319BA0A0800831203138C1C81
:100D5800AE2EAF2E332F83160313C101C201022F0B
:100D6800831603134108F0004208F1000030F11B1C
:100D7800FF30F200F30001300A128A11BF240A1270
:100D88008A11730883120313A3007208A200710862
:100D9800A1007008A0002F08A7002E08A6002D08A3
:100DA800A5002C08A4000A128A15B0270A128A1175
:100DB800031CDF2EE02EFA2E83160313070C831272
:100DC8000313B000B00C300C0139B0000130B0068C
:100DD800B00DB00DB00D831603130708831203136B
:100DE8003006F7393006831603138700013083165F
:100DF8000313C1070318C20A0030C2078312031382
:100E08002F08A3002E08A2002D08A1002C08A0007E
:100E1800831603134108F0004208F1000030F11B6B
:100E2800FF30F200F30001300A128A11BF240A12BF
:100E38008A11730883120313A7007208A6007108A9
:100E4800A5007008A4000A128A1177250A128A11CF
:100E580003182F2F302FB42E831203138C10080081
:100E6800003083160313A3000030A2000030A10055
:100E78000030A000831203133A08390438043704F9
:100E88000319472F482FA52F83160313A401A40A7B
:100E98005C2F0130BF000310B70DB80DB90DBA0DA6
:100EA800BF0B4F2F0130BF003F0883160313A40761
:100EB80083120313BA1F612F622F4D2F0130831243
:100EC800BF00031083160313A00DA10DA20DA30DDF
:100ED80083120313BF0B652F3A083E02031D7E2FB2
:100EE80039083D02031D7E2F38083C02031D7E2F62
:100EF80037083B02031C812F822F932F3708BB0230
:100F08003808031C380FBC023908031C390FBD020E
:100F18003A08031C3A0FBE0283160313201401304B
:100F280003108312BA0CB90CB80CB70CFF3E031DA2
:100F3800942F013083160313A402031DA42FA52F99
:100F4800622F83160313230883120313BA00831630
:100F58000313220883120313B9008316031321080D
:100F680083120313B8008316031320088312031394
:100F7800B700080083160313200821040319C52F9E
:100F8800C62FF92FA401A40AD82F01300310A00DF1
:100F9800A10DFF3E031DCA2F013083120313BF00AA
:100FA8003F0883160313A407A11FDB2FDC2FC92FCB
:100FB80021082302031DE22F20082202031CE52F2B
:100FC800E62FEC2F2008A2022108031CA303A3028A
:100FD80001300310A10CA00CFF3E031DED2F0130C2
:100FE800A402031DF82FF92FDC2F2308A1002208E3
:040FF800A00008004D
:10100000FF1B0A2883137F1883170008840A03191B
:10101000FF0A080008308A000408840A82070034A6
:10102000013400340A34003464340034E8340334C6
:101030001034273432342E3445346E3476346934E7
:101040006134723420344134733463346934693424
:10105000003431342E344C346534653472342034E9
:1010600070346F34743465346E34633469346F347F
:101070006D346534743472346F340D340A34003492
:0E10800025343034333475340D340A340034E2
:101BA40064008001840A0406031900340406D32D5A
:101BB40083120313370C83160313031C87110318B2
:101BC40087150800831203138C1AE92DEA2DEC2DD6
:101BD4000310ED2D03140800F0007008831203179E
:101BE4008D00831603178C130C14831203170C082F
:101BF4000800831203138C1E002E012EFB2D981C4B
:101C0400042E052E072E181218161A08080083121F
:101C14000313B70083160313981C112E122E0C2ED7
:101C240083120313370899000800831203138C1AD4
:101C34001C2E1D2E282E981C202E212E262E1812E6
:101C440000008312031318161A08292E0030080006
:101C540083120313B800B7013A3038020318332E45
:101C6400342E3C2E30303802031C392E3A2E3C2EB2
:101C7400B701B70A370C08008312031320082104A4
:101C8400031D452E462E4D2E1E08A6000310260CBD
:101C9400803E9500532E1E08A6000310260C803E9D
:101CA4009B0008001A3083120313B8008030B90077
:101CB4000A128A15B2260A128A150B3083120313EC
:101CC400B8008030B9000A128A15B2260A128A15A1
:101CD4000800F1007108831203178D0070088C004E
:101CE400831603178C130C150B08F2008B01553067
:101CF4008D00AA308D008C1472088B000C11832E79
:101D04000000831203130D1E882E892E822E0D12BD
:101D1400080083120313BB01BC01371C922E932EBF
:101D2400992E3908BB070318BC0A3A08BC070130CE
:101D34000310B90DBA0DFF3E031D9A2E0130031096
:101D4400B80CB70CFF3E031DA12E37083804031D41
:101D5400AC2EAD2E8F2E3C08B8003B08B70008000F
:101D640083120313BC01D12E3C08BA00BB013A080C
:101D7400380784003B0803183B0A3907FF000A129E
:101D84008A1500200A128A150A128A1509260A12CF
:101D94008A15013083120313BA003A08BC073C08C1
:101DA400BA00BB013A08380784003B0803183B0A11
:101DB4003907FF000A128A1500200A128A15003A10
:101DC400031DE52EE62EB62E0800033083160317F6
:101DD40088008901FF30831603138500FF308600D5
:101DE400880181130F309500831203138601870144
:101DF400880189017030831603138F040F149F1315
:101E04001F129F12831203131F083F3940389F008B
:101E1400C3309F051F140F3083120313B700B70B91
:101E2400112F142F831203130C13831603130C178F
:101E34008B110B140B178B17080083120313BD01AE
:101E4400BE01370838040319282F292F602FBC013D
:101E5400BC0A372F01300310B70DB80DFF3E031D28
:101E64002D2F0130BB003B08BC07B81F3A2F3B2F76
:101E74002C2F01300310BD0DBE0DFF3E031D3C2F62
:101E840038083A02031D482F37083902031C4B2F28
:101E94004C2F532F3708B9023808031CBA03BA026F
:101EA4003D1401300310B80CB70CFF3E031D542F32
:101EB4000130BC02031D5F2F602F3B2F3E08B8008A
:101EC4003D08B700080083160313240C031C871075
:101ED40003188714220C031C07110318071529087B
:101EE40083120313BA0083160313280883120313FF
:101EF400B90083160313270883120313B80083164B
:101F04000313260883120313B7000A128A111B262F
:101F14000A128A15831203133708831603139200D7
:101F24003F308312031397051708F0390C389700D4
:101F34000F309500CF3097058C10033092041215A2
:101F44001D08F0390C389D000F309B001D129D12A6
:101F54008C1CAD2FAE2FAA2F8C10080000308312DA
:101F640003132005A80000302105A90080302205B4
:101F7400AA007F302305AB002B082A042904280477
:101F8400031DC52FC62FCE2F0030A3000030A200A2
:101F94000030A1000030A00000302405A80000306B
:101FA4002505A90080302605AA007F302705AB004F
:101FB4002B082A0429042804031DE12FE22FEA2F09
:101FC4000030A7000030A6000030A5000030A400B7
:101FD40027082306031DF82F26082206031DF82FC1
:101FE40025082106031DF82F240820060319FB2FBA
:0C1FF400FC2FFE2F0310FF2F0314080029
:08400000FF3FFF3FFF3FFF3FC0
:04400E00D520FF3F7B
:00000001FF
