:060000000A128A110E280D
:10000800FE00030E83120313AB000A08AC000A12A9
:100018008A11E52A0A128A11112883134D308400A7
:1000280061300A128A15C0270A128A1183010A123E
:100038008A11A42983120313C6003C30C1008F29FA
:1000480025304906031929282A2834284608840017
:100058004908831380000130BE003E08C6078F2977
:10006800C701C801C2013D2842150130BE003E0843
:10007800BB073B0884000A128A110A260A128A1151
:10008800BE00BF013F08003A03194B2850283E081C
:10009800303A0319382850283B0884000A128A117C
:1000A8000A260A128A110A128A11E5250A128A11E9
:1000B800031C5F286028A62883120313C701C80100
:1000C8000A3083120313AD000030AE004808B000B8
:1000D8004708AF000A128A117B270A128A11831275
:1000E80003132E08C8002D08C7003B0884000A1215
:1000F8008A110A260A128A11D03EBE00FF30031860
:100108000030BF003E08C7070318C80A3F08C807E1
:100118000130BE003E08BB073B0884000A128A1162
:100128000A260A128A110A128A11E5250A128A1168
:1001380003189F28A0286428A628C030BE003E08BF
:10014800C204C228013083120313BB07FF303B07E8
:1001580084000A128A110A260A128A11C900BE00EE
:10016800BF013F08003A0319BA288F293E08003A10
:1001780003199F29753A0319A1288F29410884007A
:1001880083130008C300840A0008C4000230BE00BC
:100198003E08C107C901C90A4908BE003E07013E19
:1001A80084000A128A110A260A128A11BF000A124A
:1001B8008A110A260A128A11C00040084402031D47
:1001C800E7283F0843020318EA28EB28EC28F6281A
:1001D8000130BE003E08C90705304906031DF52851
:1001E800F628D0284808803A803C031DFD28470897
:1001F80049020318002901290D298312031349080C
:10020800BE00BF013E08C7023F08031CC803C8025E
:10021800112983120313C701C801421D1429152986
:1002280031294708480403191A291B294C2946086B
:1002380084003030831380000130BE003E08C607BA
:10024800FF30C7070318C80AFF30C8074708480423
:10025800031D2F2930291B294C2947084804031955
:10026800362937294C29460884002030831380001A
:100278000130BE003E08C607FF30C7070318C80A8A
:10028800FF30C80747084804031D4B294C29372964
:100298004908C50086290A30B5000030B60045086F
:1002A800BE003E07013E84000A128A110A260A127D
:1002B8008A11AD000A128A110A260A128A11AE00A2
:1002C8004408B0004308AF000A128A1147260A12F0
:1002D8008A11831203132E08B8002D08B7000A12DA
:1002E8008A11D2260A128A11831203133508303E66
:1002F800C900460884004908831380000130BE0005
:100308003E08C607FF30BE003E08C507450A031D64
:100318008E298F294F290130BB07FF303B07840006
:100328000A128A110A260A128A11C9004908031DED
:100338009E299F29242846088400831380010800E9
:100348000A128A110E270A128A11703083160313B3
:100358008F00003083120313B700B8000030B900D3
:10036800BA004330BE007F30BD000030BC00003012
:10037800BB000A128A118D260A128A1183120313EE
:100388009F140030BE000030BD002530BC00803016
:10039800BB000A128A1165240A128A110B308312D3
:1003A8000313CC002630CB005D30CA00CA0BDA2913
:1003B800CB0BDA29CC0BDA291A3083120313AE00DF
:1003C8008030AF000A128A1146270A128A110630B5
:1003D80083120313CC001330CB00AD30CA00CA0B14
:1003E800F329CB0BF329CC0BF3290B30831203131E
:1003F800AE008030AF000A128A1146270A128A110D
:10040800063083120313CC001330CB00AD30CA0082
:10041800CA0B0C2ACB0B0C2ACC0B0C2A2E308312BD
:100428000313AE008030AF000A128A1146270A1261
:100438008A11831203139F14D901DA01831203135B
:100448009F18272A282AB42AD901DA01831203130C
:100458005908CA00CA0DCA0D1F084A06C3394A06F8
:100468009F009F140130D9070318DA0A0030DA0711
:100478005A08803AFF0080307F02031D452A033066
:100488005902031C482A492A2A2AB42A2E30AE00C7
:100498008030AF000A128A1146270A128A113130B9
:1004A80083120313BB000A30BC000030BD00A0302B
:1004B8000A128A111E200A128A11A030831203130D
:1004C800AE000030AF000A128A1146270A128A11BC
:1004D8000A128A11C2270A128A11303083120313B2
:1004E8009A00CA2A2F3083120313CC00AC30CB00F9
:1004F800EB30CA00CA0B7E2ACB0B7E2ACC0B7E2A95
:10050800852A2E3083120313AE008030AF000A1202
:100518008A1146270A128A110A128A15ED270A1229
:100528008A1183120313AE008030AF000A128A11B9
:1005380046270A128A112E3083120313AE00803028
:10054800AF000A128A1146270A128A110A128A1162
:10055800C2270A128A113030831203139A00CA2A5A
:100568000A128A15ED270A128A1183120313CA0088
:10057800CB014B08003A0319C22ACA2A4A08313A61
:1005880003194A2A033A0319762ACA2A0A128A152B
:10059800C8270A128A11031CD22AD32A222A0A122D
:1005A8008A15DF270A128A1183160313A90029085E
:1005B8000A128A11EF270A128A11222A0A128A11AC
:1005C8000E280C1FE82AE92A7A2B1F0CA700270CF3
:1005D8000F39013A031DF12AF22A182B0030A00026
:1005E800A1001E08A700A801A901AA012A08F30072
:1005F8002908F2002808F1002708F00000300A1244
:100608008A11AD230A128A11730883120313A500F5
:100618007208A4007108A3007008A2000A128A11C7
:10062800D9270A128A11772B1F0CA700270C0F391C
:10063800003A031D202B212B512B0130A000003044
:10064800A1001E08A700A801A901AA012A08F30011
:100658002908F2002808F1002708F00000300A12E3
:100668008A11AD230A128A11730883120313A50095
:100678007208A4007108A3007008A2000A128A1167
:10068800D9270A128A11831203131E08A700A8018A
:100698002708D5002808D600772B1F0CA700270CA1
:1006A8000F39023A031D592B5A2B772B1E08A70026
:1006B800A801A901AA012A08F3002908F2002808BC
:1006C800F1002708F00000300A128A11AD230A123F
:1006D8008A11730883120313D0007208CF007108BF
:1006E800CE007008CD00831203130C130B1C7D2B56
:1006F8007E2BA62B8618812B822B8A2B861C852B7A
:10070800862B822B0130A7002708890706198D2B15
:100718008E2BA62BA22B5508F00057080A128A1117
:10072800A2270A128A118312031357080A128A157C
:10073800D2270A128A11831203138800061DA52BDB
:10074800A62B8F2B2C088A002B0E8300FE0E7E0E04
:100758000900F80078080319B22BB32BC72BF31F35
:10076800B62BB72BC72B7009FA007109FB00720969
:10077800FC007309FD00FA0A0319FB0A0319FC0AB5
:100788000319FD0ACF2B7308FD007208FC007108DD
:10079800FB007008FA007308720471047004031DEA
:1007A800D62BD72BE02B0030F3000030F2000030BE
:1007B800F1000030F000642C9630F900F02B013085
:1007C800F4007408F90701300310FD0CFC0CFB0C55
:1007D800FA0CFF3E031DE82BFE307D05031DF52BAB
:1007E800F62BE32B122C0130F4007408F9070130C2
:1007F800FA07003003180130FB07003003180130F6
:10080800FC07003003180130FD0701300310FD0C10
:10081800FC0CFB0CFA0CFF3E031D0A2CFF307D0577
:10082800031D172C182CF72B242C0130F90201304A
:10083800F4000310FA0DFB0DFC0DFD0DF40B1D2C3F
:10084800FC1B272C282C2E2C0230790203182D2C67
:100858002E2C192C7918312C322C3A2CFF30FA0511
:10086800FF30FB057F30FC05FF30FD050310F90C58
:100878007908F400F501F601F70118300310F40DBA
:10088800F50DF60DF70DFF3E031D422C7408FA0412
:100898007508FB047608FC047708FD04780803193A
:1008A800562C572C5C2CF31F5A2C5B2C5C2CFD17F8
:1008B8007D08F3007C08F2007B08F1007A08F0005C
:1008C8000800831203133B08BF003C08C0003D0822
:1008D800C1003E08C20004300310BF0DC00DC10D99
:1008E800C20DFF3E031D702C4208B0004108AF0046
:1008F8004008AE003F08AD000030B4007A30B300C5
:100908001230B2000030B1000A128A117D250A1295
:100918008A11831203132D08FF3EC3002E08031803
:10092800013EFF3EC400C41F9A2C9B2C9D2CC30182
:10093800C4014408803AFF0081307F02031DA62CC1
:1009480000304302031CA92CAA2CF82C8312031391
:100958003B08BF003C08C0003D08C1003E08C2007B
:1009680006300310BF0DC00DC10DC20DFF3E031DA3
:10097800B52C4208B0004108AF004008AE003F085F
:10098800AD000030B4007A30B3001230B20000304D
:10099800B1000A128A117D250A128A1183120313E3
:1009A8002D08FF3EC3002E080318013EFF3EC40079
:1009B8004408803AFF0081307F02031DE52C003097
:1009C8004302031CE82CE92CEF2CFF30831203139D
:1009D800C3000030C40083120313430883160313B3
:1009E800990020309800002D8312031343088316C2
:1009F8000313990024309800903083120313980051
:100A080008000310831203132F0D300DB6003608AB
:100A1800031D0F2D102D192D0030B0000030AF0030
:100A28000030AE000030AD007C2D2D08B1002E083E
:100A3800B2002F08B3003008B4001F300310B40C04
:100A4800B30CB20CB10CFF3E031D222D3108B500CA
:100A5800AF17FF30AD05FF30AE05FF30AF050030F2
:100A6800B0059630B602B61F3A2D3B2D552D3608E7
:100A7800803A973E0318412D422D432D102D013009
:100A88000310B00CAF0CAE0CAD0CFF3E031D442D93
:100A98000130B1003108B607031D532D542D432DE5
:100AA8006C2D20303602031C5A2D5B2D672D102D1E
:100AB8000130B1000310AD0DAE0DAF0DB00DB10B8F
:100AC8005E2D0130B6023608031D6B2D6C2D5C2D92
:100AD80035080319702D712D7C2DAD09AE09AF09AC
:100AE800B009AD0A0319AE0A0319AF0A0319B00A0F
:100AF8000800003083120313B9000030B80000303A
:100B0800B7000030B60030082F042E042D04031956
:100B18008E2D8F2DDC2DBA01BA0A9F2D0130B5001C
:100B28000310AD0DAE0DAF0DB00DB50B942D01300A
:100B3800B5003508BA07B01FA22DA32D922D01309C
:100B4800B5000310B60DB70DB80DB90DB50BA52D31
:100B580030083402031DBA2D2F083302031DBA2DA5
:100B68002E083202031DBA2D2D083102031CBD2D9B
:100B7800BE2DCD2D2D08B1022E08031C2E0FB2025A
:100B88002F08031C2F0FB3023008031C300FB402C8
:100B9800361401300310B00CAF0CAE0CAD0CFF3E98
:100BA800031DCE2D0130BA02031DDB2DDC2DA32D34
:100BB8003908B0003808AF003708AE003608AD0075
:100BC800080083120313AE00AD013A302E02031859
:100BD800EE2DEF2DF72D30302E02031CF42DF52DC0
:0A0BE800F72DAD01AD0A2D0C080039
:100C0000FF1B0A2E83137F1883170008840A031919
:100C1000FF0A080006308A000408840A82070034AC
:100C2000013400340A34003464340034E8340334CA
:100C30001034273432342E3445346E3476346934EB
:100C40006134723420344134733463346934693428
:100C5000003431342E344C346534653472342034ED
:100C600070346F34743465346E34633469346F3483
:100C70006D346534743472346F340D340A34003496
:100C800025343034333475340D340A34003483124F
:100C90000313B301B4012D082E040319502E512E55
:100CA000882EB201B20A5F2E01300310AD0DAE0DD9
:100CB000FF3E031D552E0130B1003108B207AE1FB3
:100CC000622E632E542E01300310B30DB40DFF3E7F
:100CD000031D642E2E083002031D702E2D082F02D6
:100CE000031C732E742E7B2E2D08AF022E08031CBE
:100CF000B003B002331401300310AE0CAD0CFF3E54
:100D0000031D7C2E0130B202031D872E882E632E18
:100D10003408AE003308AD00080083120313390C09
:100D200083160313031C87100318871483120313FD
:100D3000370C83160313031C0711031807158312BE
:100D400003133E08B0003D08AF003C08AE003B086E
:100D5000AD000A128A1105250A128A1183120313A3
:100D60002D088316031392003F3083120313970557
:100D70001708F0390C3897000F309500CF309705E1
:100D80008C100330920412151D08F0390C389D00A8
:100D90000F309B001D129D128C1CCF2ED02ECC2EFE
:100DA0008C10080083120313350836040319D92E5A
:100DB000DA2E092FBA01BA0AE82E01300310B50D58
:100DC000B60DFF3E031DDE2E0130B9003908BA070B
:100DD000B61FEB2EEC2EDD2E36083802031DF22E48
:100DE00035083702031CF52EF62EFC2E3508B70207
:100DF0003608031CB803B80201300310B60CB50C5A
:100E0000FF3E031DFD2E0130BA02031D082F092FDE
:100E1000EC2E3808B6003708B500080003308316FA
:100E2000031788008901FF30831603138500FF3004
:100E30008600880181130F30950083120313860109
:100E40008701880189017030831603138F040F1402
:100E50009F131F129F12831203131F083F3940383C
:100E60009F00C3309F051F140F3083120313AD0082
:100E7000AD0B382F3B2F831203130C138316031370
:100E80000C178B110B140B178B170800831203130D
:100E9000B201652F3208B000B10130082E0784007E
:100EA00031080318310A2F07FF000A128A110026A1
:100EB0000A128A110A128A11EF270A128A110130C6
:100EC00083120313B0003008B2073208B000B1013A
:100ED00030082E07840031080318310A2F07FF005D
:100EE0000A128A1100260A128A11003A031D792F6C
:100EF0007A2F4A2F080083120313B101B2012D1C6F
:100F0000822F832F892F2F08B1070318B20A3008C8
:100F1000B20701300310AF0DB00DFF3E031D8A2F45
:100F200001300310AE0CAD0CFF3E031D912F2D08B8
:100F30002E04031D9C2F9D2F7F2F3208AE003108F9
:100F4000AD000800F1007108831203178D007008CE
:100F50008C00831603178C130C150B08F2008B0101
:100F600055308D00AA308D008C1472088B000C1146
:100F7000BA2F0000831203130D1EBF2FC02FB92FED
:100F80000D1208001A3083120313AE008030AF0038
:100F90000A128A1146270A128A110B308312031390
:100FA000AE008030AF000A128A1146270A128A1159
:100FB00008008312031320082104031DE02FE12FF2
:100FC000E82F1E08A6000310260C803E9500EE2F89
:100FD0001E08A6000310260C803E9B00080083120A
:100FE0000313AD0083160313981CF72FF82FF22F6D
:0A0FF000831203132D089900080076
:101F800064008001840A0406031900340406C12F8A
:101F9000831203138C1ACD2FCE2FD02F0310D12FE5
:101FA00003140800F0007008831203178D008316D5
:101FB00003178C130C14831203170C0808008312E8
:101FC00003138C1EE42FE52FDF2F981CE82FE92F39
:101FD000EB2F181218161A080800831203138C1A14
:101FE000F22FF32FFE2F981CF62FF72FFC2F18122D
:101FF00000008312031318161A08FF2F0030080080
:08400000FF3FFF3FFF3FFF3FC0
:04400E00D538FF3F63
:00000001FF
