:060000000A128A110E280D
:10000800FE00030E83120313AB000A08AC000A12A9
:100018008A11D6280A128A111128831340308400C5
:1000280050300A128A11AE220A128A1183010A126A
:100038008A11E129F8007808031923282428382888
:10004800F31F2728282838287009FA007109FB00AF
:100058007209FC007309FD00FA0A0319FB0A031967
:10006800FC0A0319FD0A40287308FD007208FC0009
:100078007108FB007008FA007308720471047004B8
:10008800031D4728482851280030F3000030F200AB
:100098000030F1000030F000D5289630F9006128D2
:1000A8000130F4007408F90701300310FD0CFC0C52
:1000B800FB0CFA0CFF3E031D5928FE307D05031D7D
:1000C80066286728542883280130F4007408F90743
:1000D8000130FA07003003180130FB07003003181D
:1000E8000130FC07003003180130FD070130031010
:1000F800FD0CFC0CFB0CFA0CFF3E031D7B28FF30AB
:100108007D05031D88288928682895280130F9026B
:100118000130F4000310FA0DFB0DFC0DFD0DF40B7E
:100128008E28FC1B982899289F28023079020318EA
:100138009E289F288A287918A228A328AB28FF3050
:10014800FA05FF30FB057F30FC05FF30FD05031085
:10015800F90C7908F400F501F601F70118300310DD
:10016800F40DF50DF60DF70DFF3E031DB3287408C9
:10017800FA047508FB047608FC047708FD0478087F
:100188000319C728C828CD28F31FCB28CC28CD2889
:10019800FD177D08F3007C08F2007B08F1007A085F
:1001A800F00008000C1FD928DA2862291F0CA700C4
:1001B800270C0F39013A031DE228E32809290030EA
:1001C800A000A1001E08A700A801A901AA012A08E9
:1001D800F3002908F2002808F1002708F000003091
:1001E8000A128A111E200A128A1173088312031335
:1001F800A5007208A4007108A3007008A2000A12E2
:100208008A1198220A128A115F291F0CA700270C4D
:100218000F39003A031D1129122939290130A0008C
:100228000030A1001E08A700A801A901AA012A08F8
:10023800F3002908F2002808F1002708F000003030
:100248000A128A111E200A128A11730883120313D4
:10025800A5007208A4007108A3007008A2000A1281
:100268008A1198220A128A115F291F0CA700270CED
:100278000F39023A031D412942295F291E08A700A8
:10028800A801A901AA012A08F3002908F2002808F0
:10029800F1002708F00000300A128A111E200A1205
:1002A8008A11730883120313C3007208C20071080D
:1002B800C1007008C000831203130C132C088A00B5
:1002C8002B0E8300FE0E7E0E09000310831203130B
:1002D8002F0D300DB6003608031D732974297D29AA
:1002E8000030B0000030AF000030AE000030AD008C
:1002F800E0292D08B1002E08B2002F08B3003008FD
:10030800B4001F300310B40CB30CB20CB10CFF3E98
:10031800031D86293108B500AF17FF30AD05FF3042
:10032800AE05FF30AF050030B0059630B602B61FF7
:100338009E299F29B9293608803A973E0318A5298E
:10034800A629A729742901300310B00CAF0CAE0CF4
:10035800AD0CFF3E031DA8290130B1003108B607D6
:10036800031DB729B829A729D02920303602031C34
:10037800BE29BF29CB2974290130B1000310AD0D66
:10038800AE0DAF0DB00DB10BC2290130B602360863
:10039800031DCF29D029C02935080319D429D52907
:1003A800E029AD09AE09AF09B009AD0A0319AE0AD3
:1003B8000319AF0A0319B00A08000A128A11702239
:1003C8000A128A11003083120313B700B8000030F4
:1003D800B900BA004330BE007F30BD000030BC0019
:1003E8000030BB000A128A112B220A128A118312CA
:1003F80003139F14C801C901831203139F18052A08
:10040800062A002AC801C901831203134808BF003D
:10041800BF0DBF0D1F083F06C3393F069F009F143D
:100428000130C8070318C90A0030C9074908803ACB
:10043800FF0080307F02031D232A03304802031C7B
:10044800262A272A082A002A0A128A110E28831225
:100458000313390C83160313031C8710031887141E
:1004680083120313370C83160313031C0711031895
:100478000715831203133E08B0003D08AF003C087F
:10048800AE003B08AD000A128A1169210A128A11CE
:10049800831203132D088316031392003F3083122F
:1004A800031397051708F0390C3897000F3095009B
:1004B800CF3097058C100330920412151D08F039BF
:1004C8000C389D000F309B001D129D128C1C6D2A4C
:1004D8006E2A6A2A8C1008000330831603178800D6
:1004E8008901FF3083160313850070308F040F14C1
:1004F8009F131F129F12831203131F083F3940389E
:100508009F00C3309F051F140F3083120313AD00E3
:10051800AD0B8C2A8F2A831203130C138316031333
:100528000C170B178B1708008312031320082104DC
:10053800031D9F2AA02AA72A1E08A6000310260C1E
:10054800803E9500AD2A1E08A6000310260C803EAA
:100558009B00080064008001840A04060319003423
:040568000406AF2AAC
:08400000FF3FFF3FFF3FFF3FC0
:04400E00D538FF3F63
:00000001FF
